:020000040000FA
:06000000FA6A00EF0CF0AB
:020006000000F8
:0400080022EF00F0F3
:0400180024EF00F0E1
:0E00400026EF00F026EF00F026EF00F00000A3
:0217FE000000E9
:101800002BEC0CF000018B868B88898A821C070BDD
:1018100020E0006ECC6A240E136EF40E146E821C4F
:10182000070B006216D09E929EA2FED71306D8A088
:1018300014061352F4E11452F2E1030E006201D0D7
:1018400082D0060E006201D08AD1070E006201D05C
:1018500075D220EF00F044EC0CF04BEC0CF05DEC9A
:101860000CF063EC0CF069EC0CF06AEC0CF06EEC34
:101870000CF072EC0CF075EC0CF07BEC0CF090ECD6
:101880000CF0A0EC0CF01200D38CD38AD398D3A424
:10189000FED79B8C1200898ADF0E926EBF0E8A6E75
:1018A000BF0E936E8B868B888B9A8B8C070E946EF3
:1018B000F19E080E7E6E7F6A12000F0EAF6EAB8E29
:1018C000AB88AC8A1200D59CD59AD596D594D59084
:1018D00012001200CA84FF0ECB6E1200BD86BD84BA
:1018E000BE6A1200C68AC78C1200C286C284C28039
:1018F000C088C0821200D08EF28CF28AF288F294F4
:10190000F292F19CF19AF198F194F09EF09CF0889B
:10191000F086F092F0909F9A9E929D8A9D8212008E
:10192000E96AEA6AEE6A010EEA62FCD7E96A020E27
:10193000EA6EEE6A030EEA62FCD7E96AEA6A12000E
:1019400022EEFFF012008B96400E036E046A056AC9
:10195000066A400EFE08076E170E086ED8A008062D
:10196000000E096ED8A009060A6A3F0E071408E0A7
:10197000C00E0716400E0726000E082209220A2272
:10198000C4EC0CF029EF0CF0E9CFDDFFEACFDDFF6E
:10199000FDEC0CF003C0F6FF04C0F7FF05C0F8FF34
:1019A000080E9EEC0DF0400E186E00EE0BF0080EC7
:1019B000136E0900F5CFEEFF1306FBE133EC0DF0DB
:1019C000080E9EEC0DF0080E075E000E085A095A2C
:1019D0000A5A075207E1085205E1095203E10A5287
:1019E00001E104D0080E185EDBE0DFD75CEC0DF0FF
:1019F000DCCFEAFFDCCFE9FF1200F00E9AEC0DF02D
:101A0000770E9AEC0DF01D0E9AEC0DF0030E016EA0
:101A10009AEC0DF00350011A91EC0DF00450011AEC
:101A200091EC0DF00550011A91EC0DF00650011AE1
:101A300091EC0DF00750011A91EC0DF00850011ACD
:101A400091EC0DF00950011A91EC0DF00A50011AB9
:101A500091EC0DF001507F0B026A9AEC0DF0F70E3D
:101A60009AEC0DF01200E9CFDDFFEACFDDFF00EECA
:101A70000BF0F00E9AEC0DF0770E9AEC0DF01D0EB7
:101A80009AEC0DF0010E016E9AEC0DF0080E196E35
:101A9000EF50011A91EC0DF0EE501906F9E10150EA
:101AA0007F0B021A9AEC0DF0F70E9AEC0DF0DCCFDA
:101AB000EAFFDCCFE9FF1200F00E9AEC0DF0770E92
:101AC0009AEC0DF01D0E9AEC0DF0020E016E9AECE0
:101AD0000DF0000E011A91EC0DF0000E011A91ECC0
:101AE0000DF0000E011A91EC0DF0000E011A91ECB0
:101AF0000DF0000E011A91EC0DF0000E011A91ECA0
:101B00000DF0000E011A91EC0DF0000E011A91EC8F
:101B10000DF002507F0B9AEC0DF0F70E9AEC0DF0E1
:101B20001200166E0F0B9AEC0DF016380F0B9AEC94
:101B30000DF012009EA8FED7AD6E1200E8520EE026
:101B4000F36E200EF302CC6A9E929EA2FED7F3069D
:101B5000D8A0F406F352F8E1F452F6E11200899AA3
:101B600068EC0EF0030E1E1807E0110E1E1856EF5B
:101B70000EF0F6D729EF0CF01FC003F021C004F0DF
:101B800023C005F025C006F027C007F029C008F0E3
:101B90002BC009F02DC00AF059EC0EF015A245D06B
:101BA00003C0F6FF04C0F7FF05C0F8FFA68EA69C91
:101BB000A684A688550EA76EAA0EA76EA6820A0056
:101BC00068EC0EF08B768B78897A020E1E186EE028
:101BD000010E1E1838E159EC0EF015A259D01FC0A5
:101BE000F5FF0F0021C0F5FF0F0023C0F5FF0F0028
:101BF00025C0F5FF0F0027C0F5FF0F0029C0F5FF36
:101C00000F002BC0F5FF0F002DC0F5FF0F00A68EB3
:101C1000A69CA684550EA76EAA0EA76EA6823F0E9E
:101C2000F614C4E0CDD729EF0CF08B768B98899A07
:101C3000136A100E146E9E929EA2FED71306D8B49D
:101C4000142EF9D7F2D710EE1BF03F6A3FC0A9FF60
:101C5000E6CFA8FFA69EA69CA684550EA76EAA0E48
:101C6000A76EA682A6B2FED7A694A68E3F2A160E0F
:101C70003F62ECD78B968B78899A136A100E146E9C
:101C80009E929EA2FED71306D8B4142EF9D7F2D78F
:101C90008B968B98897A136A100E146E9E929EA270
:101CA000FED71306D8B4142EF9D7F2D79EA8FED7C4
:101CB000FF0015921E501F182118231825182718E9
:101CC00029182B182D187F0B2F18D8B41582120045
:101CD000E9CFDDFFEACFDDFF00EE1BF0316A8EECCD
:101CE0000EF0F00E3262FBD732C0EEFF150E316EF1
:101CF0008EEC0EF032C0EEFF312EFAD700EE1FF060
:101D0000080E316E010EEB38EF10EE6EEE6E312ED6
:101D1000F9D7DCCFEAFFDCCFE9FF12009EAAFED79D
:101D2000ABA407D0AE509EBAFBD7AB98AB888EEF72
:101D30000EF0AECF32F032C0ADFF120029EF0CF042
:020000040030CA
:0100000000FF
:01000100A856
:010002001AE3
:0100030000FC
:0100050000FA
:010006008970
:0100080003F4
:01000900C036
:01000A0003F2
:01000B00E014
:01000C0003F0
:01000D0040B2
:00000001FF
