:020000040000FA
:06000000FA6A00EF0EF0A9
:020006000000F8
:0400080022EF00F0F3
:0400180024EF00F0E1
:10004000F4EF00F026EF00F08AEF00F003C0DDFFD0
:1000500004C0DDFF9EA254EF00F09E92020E1F1816
:1000600004E1225206E049EF00F0235202E049EF9A
:1000700000F076EC06F09EA20CD09E92222A060E8C
:100080002260226A232A020E2360236A3A2AD8B009
:100090003B2A222A060E2260226A232A020E2360AD
:1000A000236A3A2AD8B03B2AF2A285EF00F0F292F6
:1000B000020E1F1828E0020E821425E1030EA96E1D
:1000C00038C0A8FFA69EA69CA684550EA76EAA0EB1
:1000D000A76EA682A6B2FED7A694A68E040EA96E1F
:1000E00039C0A8FFA69EA69CA684550EA76EAA0E90
:1000F000A76EA682A6B2FED7A694A68E020E206E8A
:10010000800EBE6E02D0D7EC09F0DCCF04F0DCCF5D
:1001100003F01100006ED8CF01F0E0CF02F003C071
:10012000DDFF9EBA44EC02F0F0A6A2EF00F0F0A0D2
:10013000A2EF00F0F090000E206E1A0E3C6E126AD4
:10014000136A1890F0A8ABEF00F0F0A2ABEF00F04C
:10015000F092F9EC09F0F2AAECEF00F0F2A4ECEF67
:1001600000F0F294000E201803E0010E201804E1C4
:100170008B868B88898A30D0000E1F620ED03D524C
:1001800004E18B868B98899A27D03E2E25D08B76DA
:100190008B98899A3DC03EF01FD0010E1F620ED091
:1001A0003D5204E18B968B88899A16D03E2E14D04E
:1001B0008B968B78899A3DC03EF00ED03D5204E17B
:1001C0008B968B98898A08D03E2E06D08B968B987A
:1001D000897A3DC03EF000D0DCCF03F002C0E0FFE2
:1001E000005001C0D8FF10000001E8CF40F071ECD2
:1001F00001F052EC04F0CCEC03F023EC02F05BECE9
:1002000004F0D4EC09F009EC0AF0F28E020E1F6241
:100210005FD018A004D022EC04F0189059D0020E40
:10022000206256D011BC02D011A652D018B250D0C4
:1002300018B60AD0800EE26FE36FE46FE56FE8EC6A
:1002400003F0E8B045D01886B2C016F0B3C017F07E
:100250003F0E1E6406D01650145C166E17501558CB
:10026000176E03EC04F0E26F010E246430D0B4C0CA
:1002700016F0B5C017F03F0E1E6406D01650145C81
:10028000166E17501558176E03EC04F0E36FB6C0E6
:1002900016F0B7C017F03F0E1E6406D01650145C5F
:1002A000166E17501558176E03EC04F0E46FB8C0C3
:1002B00016F0B9C017F03F0E1E6406D01650145C3D
:1002C000166E17501558176E03EC04F0E56F188280
:1002D00019A403D019943FEC05F01FEC09F006EFC8
:1002E00001F08AEC01F091EC01F0A3EC01F0A9EC33
:1002F00001F0B0EC01F0B1EC01F0B5EC01F0B9ECBB
:1003000001F0BCEC01F0C2EC01F0D7EC01F0E7EC3D
:1003100001F01200D38CD38AD398D3A4FED79B8C40
:100320001200898ADF0E926EBF0E8A6EBF0E936E28
:100330008B868B888B9A8B8C070E946EF19E080EA1
:100340007E6E7F6A12000F0EAF6EAB8EAB88AC8AEA
:100350001200D59CD59AD596D594D582D590120009
:100360001200CA84FF0ECB6E1200BD86BD84BE6A29
:100370001200C68AC78C1200C286C284C280C0889E
:10038000C0821200D08EF28CF28AF288F294F2923D
:10039000F19CF19AF198F194F09EF09CF088F0862F
:1003A000F092F0909F9A9E929D8A9D821200E96A37
:1003B000EA6AEE6A010EEA62FCD7E96A020EEA6EA8
:1003C000EE6A030EEA62FCD7E96AEA6A120022EEDC
:1003D000FFF0120003C0DDFF10288B968B98899ADE
:1003E000E832D8B0898AE832D8B08B88E832D8B001
:1003F0008B86821C070B036EFCE0010E036214D097
:10040000821CE8B0FDD7020EA96E10C0A8FFA69E00
:10041000A69CA684550EA76EAA0EA76EA682A6B2AB
:10042000FED7A694A68EFF00020E0362E2D7821CBE
:10043000E8B2FDD7102A070E1018CEE1106ACCD70B
:10044000DCCF03F0120003C0DDFFE9CFDDFFEACF10
:10045000DDFF00EE59F00B6A0C6A0D6A0E6A0F6A36
:10046000020E55EC04F0106E119011921184190EC9
:10047000036EFF0EEE6E032EFDD7DCCFEAFFDCCF5E
:10048000E9FFDCCF03F0120003C0DDFF04C0DDFF95
:10049000E9CFDDFFEACFDDFF00EE41F0ABA407D0EE
:1004A000AE509EBAFBD7AB98AB88C8EF02F0AECF88
:1004B00003F011B403C0ADFFABA202D0AB98AB8880
:1004C00003AE39D0F00E036401D035D00E6A03506C
:1004D000F00B046EC00E041804E0D00E041801E006
:1004E00003D0020E0E6E18D0800E04180DE0900E90
:1004F00004180AE0A00E041807E0B00E041804E087
:10050000E00E041801E003D0030E0E6E05D0F00ECD
:10051000041802E1F70E0E6E0E520AE0118003C0BD
:1005200041F0010E0D6E03C00BF00EC00CF02DD08B
:1005300011900B6A2AD011B004D0F00E036025D0C0
:1005400018D003AE03D0F70E03181FE1180E0D608C
:10055000EFD70D5003C0EBFF0D2A0D500E6201D0F6
:1005600003D0F70E036211D00D500E6E119019D802
:100570000CD00B520AE011800BC041F00CC00EF001
:10058000010E03C0EBFF020E0D6E9EBA4EEF02F09D
:10059000DCCFEAFFDCCFE9FFDCCF04F0DCCF03F0F7
:1005A000120003C0DDFF04C0DDFF05C0DDFF06C093
:1005B000DDFFE9CFDDFFEACFDDFF00EE41F0000E09
:1005C000EB50F00B046EF00A09E01050060A06E04A
:1005D000000EEB500F0B1062ABEF03F0010EEB506F
:1005E000056E020EEB50066E900E046204D00652A9
:1005F00002E1800E046E900E046204D00550C7EC38
:1006000004F0A9D0800E046204D00550EDEC04F093
:10061000A2D0E00E046219D0010E211816E042C0EB
:100620001AF0D8904330D8B01A8E1B6E1C6A1D6A1F
:10063000200E1B6007D0200E1B5ED8A01C06D8A081
:100640001D0689D0200E1B5E86D0B00E046263D0DA
:100650000550780A03E005507B0A04E1FF0EEDEC3B
:1006600004F079D00550790A01E1FF000550400AF5
:100670000DE13F0E066405D0000E216ED7EC09F0A7
:100680006AD0020E216ED7EC09F065D005507E0AC3
:1006900005E1010E216ED7EC09F05DD005507F0A0F
:1006A00005E1020E216ED7EC09F055D00550010A84
:1006B0001EE1010E21181BE006C01EF0AE0E256ED5
:1006C000170E266E000E276E2E0E286E160E296E41
:1006D000000E2A6E0650255ED8A02606D8A0270652
:1006E00006502826D8B0292AD8B02A2A34D0055056
:1006F000490A07E1400E036E0628D890E830035CF3
:10070000386E0550480A07E1400E036E0628D8905F
:10071000E830035C396EC00E04620ED0055002084A
:1007200004E305C01FF0198405D00F500564198239
:10073000F9EC09F005C00FF0F00E04620CD0010EC8
:10074000EB50770A08E1020EEB501D0A04E1030E9C
:10075000EB501E0A00E1DCCFEAFFDCCFE9FFDCCF83
:1007600006F0DCCF05F0DCCF04F0DCCF03F01200A4
:100770001894F2BE1884F29EE8CFDDFFC950C69EE1
:10078000DCCFE8FFC96EC6BE04D09E969EA6FED7FB
:10079000C95018B4F28E1200E0EC03F0000EF3EC36
:1007A00003F0126A136A166A176A18901892000EFC
:1007B00055EC04F0146E010E55EC04F0156E1200A9
:1007C0008B9C060EB8EC03F0C6BEFBD78B8C1200D8
:1007D0008B9C050EB8EC03F0C6BEFBD7000EB8EC40
:1007E00003F08B8C120003C0DDFF036E8B9C010EA7
:1007F000B8EC03F0C6BEFBD70350B8EC03F08B8C0B
:10080000DCCF03F0120003C0DDFFE9CFDDFFEACF4C
:10081000DDFF00EE72F08B9C030EB8EC03F0C6BE59
:10082000FBD71750B8EC03F01650B8EC03F0000EED
:10083000B8EC03F08B8CDCCFEAFFDCCFE9FFDCCF38
:1008400003F0120003C0DDFFE9CFDDFFEACFDDFFDB
:10085000F3CFDDFFF4CFDDFF00EE72F0E0EC03F04C
:100860008B9C020EB8EC03F01304400DF450B8EC6E
:1008700003F0F350B8EC03F0036A0350EB50B8EC0C
:1008800003F0032A400E0362F8D718968B8CDCCF56
:10089000F4FFDCCFF3FFDCCFEAFFDCCFE9FFDCCFF6
:1008A00003F01200A68EA69C1200A96EA69EA6803A
:1008B000A850A68E120003C0DDFFE9CFDDFFEACF0E
:1008C000DDFF1E6A1A6A1B6A1C6A1D6A000E1F6E13
:1008D000020E206E000E216E040E246E226A236A20
:1008E00011961198119A119C1990199219941996B0
:1008F000AE0E256E170E266E000E276E2E0E286E7B
:10090000160E296E000E2A6E2B802B822B842B86CE
:100910002C6A306A316A326A336A346835683668FC
:1009200037683A6A3B6A3C6A030E55EC04F0386E4D
:10093000040E55EC04F0396E00EEBAF0080E036EAA
:10094000EE6A032EFDD700EED2F0100E036EEE6AB3
:10095000032EFDD700EEE2F0040E036E800EEE6E65
:10096000032EFCD700EEC2F0080E036EEE6A032ED3
:10097000FDD700EECAF0080E036EEE6A032EFDD717
:10098000DCCFEAFFDCCFE9FFDCCF03F0120003C0CD
:10099000DDFF04C0DDFF05C0DDFFE9CFDDFFEACFED
:1009A000DDFF00EE59F0036E180E046E0404EB50E8
:1009B000056E045005C0EBFF042EF8D703C059F0B4
:1009C000DCCFEAFFDCCFE9FFDCCF05F0DCCF04F0C1
:1009D000DCCF03F0118A44D8120003C0DDFF04C04D
:1009E000DDFF05C0DDFF06C0DDFFE9CFDDFFEACF9B
:1009F000DDFF00EE59F0036E046A031C04E00450AE
:100A0000EB50036202D00450EB68042A190E046212
:100A1000F4D70668065216E0066A046A0450EB1C16
:100A20000CE10428EB1C09E006680428EB50056E75
:100A3000045005C0EBFF0428EB68042A180E04627A
:100A4000EDD7E8D7DCCFEAFFDCCFE9FFDCCF06F05B
:100A5000DCCF05F0DCCF04F0DCCF03F001D81200CE
:100A6000591C03E11188119607D011AC03D01198DD
:100A7000119602D01198118619841986120003C0AC
:100A8000DDFFE9CFDDFFEACFDDFFE1CFDDFFE2CF24
:100A9000DDFFF6CFDDFFF7CFDDFFF8CFDDFFF5CFD0
:100AA000DDFF00EE59F010EEBAF01996036A020E5F
:100AB0001F1810E00350EBBE1DD0D890EB342E0F62
:100AC000F66E140ED8B0010FF76E000ED8B0010FFD
:100AD000F86E18D00350EBBE0DD0D890EB342E0F2B
:100AE000F66E150ED8B0010FF76E000ED8B0010FDC
:100AF000F86E08D0D8900334F29EE36A010FE36ADF
:100B0000F28E0BD00900D8900334F29EF5CFE3FFAC
:100B10000900010FF5CFE3FFF28E032A040E03183C
:100B2000C6E119B6C2D7DCCFF5FFDCCFF8FFDCCFCA
:100B3000F7FFDCCFF6FFDCCFE2FFDCCFE1FFDCCF5D
:100B4000EAFFDCCFE9FFDCCF03F001D8120003C0DD
:100B5000DDFF04C0DDFF05C0DDFF06C0DDFF07C00F
:100B6000DDFF08C0DDFF09C0DDFFE9CFDDFFEACF13
:100B7000DDFFE1CFDDFFE2CFDDFF00EEBAF010EEEA
:100B8000C2F01980010E24648ED0036A096A046AD7
:100B9000010E056ED8900434E35204E1010FE352D4
:100BA00001E134D0066A010E076ED8900434E35098
:100BB000086ED8900634EB50081820E1D890043421
:100BC000010FE350086ED8900634010FEB5008185F
:100BD00015E105500312075009120450E9CFDDFF5B
:100BE000EACFDDFF00EE30F0EB50010BDCCFEAFF87
:100BF000DCCFE9FF0BE004508EDB08D0D89007363D
:100C0000062A0650040AD1E10450A9DBD890053623
:100C1000042A0450040ABEE1066A010E076E07505A
:100C200009143AE1D8900634EB5203E1010FEB527C
:100C300033E0039E046A010E056ED890043403BEAF
:100C400006D0E3521FE1010FE3521CE103D005502F
:100C5000031418E105502C1415E1D8900634EB501C
:100C6000086ED890043408C0E3FFD8900634010F12
:100C7000EB50086ED8900434010F08C0E3FF045015
:100C80004ADB0AD0D8900536042A0450040AD5E17C
:100C900003BE02D0038ECED7D8900736062A065060
:100CA000040ABDE10BD0346ABAC0C2F0BBC0C3F0C5
:100CB000C46BC56BC66BC76BC86BC96B1990DCCFB7
:100CC000E2FFDCCFE1FFDCCFEAFFDCCFE9FFDCCFE6
:100CD00009F0DCCF08F0DCCF07F0DCCF06F0DCCF8A
:100CE00005F0DCCF04F0DCCF03F01200E9CFDDFF2C
:100CF000EACFDDFFE1CFDDFFE2CFDDFFF6CFDDFFA5
:100D0000F7CFDDFFF8CFDDFFF5CFDDFFF3CFDDFF60
:100D1000F4CFDDFF00EE72F0000E201804E0010EAB
:100D2000201801E08CD0C282C2B2FED7C450360F68
:100D3000D8B0FF0E2D6E800E2D5C06E3D890E834FF
:100D40002D24D8B0FF0E06D0E86CD890E8342D5C86
:100D5000D8A0000E2D6ED8902D30D890E830600FBE
:100D6000BE6E82A20AEF09F0020E1F62B9EF06F012
:100D700006D0020E206E800EBE6E0AEF09F03C52C5
:100D800003E03C060AEF09F0010E206E12502DC060
:100D9000EBFF122A400E12623DD2126A1880132A0B
:100DA000FA0E1318D8B405D011B603D011AA0AEF61
:100DB00009F0020E206E800EBE6E400E1302010E70
:100DC000F35ED8A0F406F3CF14F0F4CF15F0000EC4
:100DD000A96E14C0A8FFA69EA69CA684550EA76E59
:100DE000AA0EA76EA682A6B2FED7A694A68E010E64
:100DF000A96E15C0A8FFA69EA69CA684550EA76E38
:100E0000AA0EA76EA682A6B2FED7A694A68E03C08F
:100E1000DDFFE9CFDDFFEACFDDFF00EED2F02450A9
:100E2000036EEE6AEE6AEE6AEE6A032EFAD7DCCF44
:100E3000EAFFDCCFE9FFDCCF03F01198EBD111BC66
:100E400005D011A603D01196118C18922CB013D096
:100E500019B00DD0000E1F6206D0800EE25DD8A042
:100E6000E86C040804E3C2C0CAF0C3C0CBF0CA53A4
:100E700002E1CB5348E02BB007D0CA51D227CB5167
:100E8000D323000ED423D5232B901A50D2271B50E6
:100E9000D3231C50D4231D50D523020E1F6215D01E
:100EA00018A23AD011AA03D0000E211805E0D351A0
:100EB000145CD451155804E2D26BD36BD46BD56B50
:100EC000D3C0B2F0D4C0B3F027D0000E1F620CD054
:100ED000D3512524F66E2650D8B0010FF76E275057
:100EE000D8B0010FF86E0BD0D3512824F66E2950DC
:100EF000D8B0010FF76E2A50D8B0010FF86E080075
:100F0000F5CFE2F009D02B80800EE26FCA6BCB6B7D
:100F1000D26BD36BD46BD56B2CB213D019B00DD070
:100F2000000E1F6206D0800EE35DD8A0E86C0408B6
:100F300004E3C4C0CCF0C5C0CDF0CC5302E1CD5326
:100F400048E02BB207D0CC51D627CD51D723000E85
:100F5000D823D9232B921A50D6271B50D7231C50A5
:100F6000D8231D50D923020E1F6215D018A23AD0E3
:100F700011AA03D0000E211805E0D751145CD851F6
:100F8000155804E2D66BD76BD86BD96BD7C0B4F0C9
:100F9000D8C0B5F027D0000E1F620CD0D751252441
:100FA000F66E2650D8B0010FF76E2750D8B0010F5B
:100FB000F86E0BD0D7512824F66E2950D8B0010F07
:100FC000F76E2A50D8B0010FF86E0800F5CFE3F0A5
:100FD00009D02B82800EE36FCC6BCD6BD66BD76BB9
:100FE000D86BD96B2CB413D019B00DD0000E1F6282
:100FF00006D0800EE45DD8A0E86C040804E3C6C007
:10100000CEF0C7C0CFF0CE5302E1CF5348E02BB4AF
:1010100007D0CE51DA27CF51DB23000EDC23DD23AE
:101020002B941A50DA271B50DB231C50DC231D5055
:10103000DD23020E1F6215D018A23AD011AA03D0E8
:10104000000E211805E0DB51145CDC51155804E258
:10105000DA6BDB6BDC6BDD6BDBC0B6F0DCC0B7F0F2
:1010600027D0000E1F620CD0DB512524F66E2650CF
:10107000D8B0010FF76E2750D8B0010FF86E0BD023
:10108000DB512824F66E2950D8B0010FF76E2A5094
:10109000D8B0010FF86E0800F5CFE4F009D02B842A
:1010A000800EE46FCE6BCF6BDA6BDB6BDC6BDD6BD2
:1010B0002CB613D019B00DD0000E1F6206D0800ED2
:1010C000E55DD8A0E86C040804E3C8C0D0F0C9C04E
:1010D000D1F0D05302E1D15348E02BB607D0D05124
:1010E000DE27D151DF23000EE023E1232B961A5097
:1010F000DE271B50DF231C50E0231D50E123020E8E
:101100001F6215D018A23AD011AA03D0000E2118E0
:1011100005E0DF51145CE051155804E2DE6BDF6B33
:10112000E06BE16BDFC0B8F0E0C0B9F027D0000E93
:101130001F620CD0DF512524F66E2650D8B0010F67
:10114000F76E2750D8B0010FF86E0BD0DF5128246E
:10115000F66E2950D8B0010FF76E2A50D8B0010FA3
:10116000F86E0800F5CFE5F009D02B86800EE56F0C
:10117000D06BD16BDE6BDF6BE06BE16B020E1F1887
:1011800001E118B2119A18922E6A2F6A800EE25D60
:1011900004E3D8903430E25D03D0D8903430E225B7
:1011A000D8B6800E2E26D8B02F2A800EE35D04E339
:1011B000D8903530E35D03D0D8903530E325D8B6EC
:1011C000800E2E26D8B02F2A800EE45D04E3D8903E
:1011D0003630E45D03D0D8903630E425D8B6800EA2
:1011E0002E26D8B02F2A800EE55D04E3D890373044
:1011F000E55D03D0D8903730E525D8B6800E2E2691
:10120000D8B02F2AD8902F322E32D8902F322E32AB
:101210002EC0BEFFDCCFF4FFDCCFF3FFDCCFF5FF49
:10122000DCCFF8FFDCCFF7FFDCCFF6FFDCCFE2FF4F
:10123000DCCFE1FFDCCFEAFFDCCFE9FF120003C027
:10124000DDFF04C0DDFF05C0DDFFE9CFDDFFEACF34
:10125000DDFF620E3A5C020E3B58D8A051D03A6ACC
:101260003B6A036A010E046E04502C1443E100EE45
:1012700030F00350EBB603D0EBB01BD03BD000EE08
:1012800034F00350EBCF05F03850055C0AE309E079
:101290000350EBCF05F03850055E035005C0EBFF5F
:1012A00029D000EE30F00350EB9600EE34F0EB6AFC
:1012B00021D000EE34F00350EBCF05F03950052477
:1012C0000BE2E81C09E00350EBCF05F0395005268E
:1012D000035005C0EBFF0ED000EE30F00350EB9052
:1012E00000EE34F0EB6800EEC2F0D8900334EB6A05
:1012F000010FEB6AD8900436032A24500362B4D756
:10130000DCCFEAFFDCCFE9FFDCCF05F0DCCF04F077
:10131000DCCF03F0120003C0DDFFE9CFDDFFEACF31
:10132000DDFF036E00EE34F0400E386207D003504C
:10133000EB6A00EE30F0EB96EB900AD0400E3918D5
:1013400002E10350EB6800EE30F00350EB86EB90C7
:10135000DCCFEAFFDCCFE9FFDCCF03F0120003C0F3
:10136000DDFFE9CFDDFFEACFDDFF036E400E39621E
:101370000FD000EE30F00350EB90EB9600EEC2F091
:10138000D8900334E926D8B0EA2AEE6AEF6A05D08D
:1013900000EE30F00350EB80EB96DCCFEAFFDCCFC1
:1013A000E9FFDCCF03F012003D6A3E6A12001984A7
:1013B000212A030E2160216A000E216207D0040E4B
:1013C000246E000E3D6E3E6E2C6A12D0010E21621C
:1013D00009D0040E246E020E3D6E3E6E2B1C0F0BC8
:1013E0002C6E06D0010E246E010E3D6E3E6E2C6AF0
:1013F0001200198419A206D019921F0609E2020EE2
:101400001F6E06D01F2A020E1F6402D0000E1F6E30
:10141000120003C0DDFF821C070B036E040E036283
:1014200003D0EAEC01F000D0DCCF03F01200220080
:101430002400260029002B002E0030003300360047
:101440003A003D004100450049004D005200560061
:101450005C00610067006D0073007A008100890004
:1014600091009A00A300AD00B700C200CE00DA00E0
:10147000E700F400030112012301340146015A017F
:101480006E0184019B01B301CD01E9010602250231
:10149000450268028C02B302DC02080336036703CC
:1014A0009B03D2030C0449048B04D004190567057F
:1014B000B90510066C06CE063507A3071708930872
:1014C00015099F09320ACD0A720B200CD80C9C0D0D
:1014D0006B0E460F2F1025112A123F1364149A1514
:1014E000E3163F18B119381BD61C8D1E5E204B2207
:1014F00055247E26C828342BC62D7F3061336F36A5
:10150000AC391A3DBC409544A948FC4C8F516956F2
:101510008C5BFE60C266DF6C5873347A78812B89ED
:101520005391F7991FA3D2AC19B7FCC185CD080020
:10153000080009000A000A000B000B000C000D0057
:101540000D000E000F001000110012001300140017
:1015500015001700180019001B001D001E002000B8
:1015600022002400260028002B002D00300033002C
:10157000360039003C004000440048004C00510057
:1015800055005B00600066006C007200790080000E
:10159000880090009800A100AB00B500C000CB000F
:1015A000D700E400F20000010F011F0130014301E8
:1015B00056016A0180019601AF01C801E3010002F2
:1015C0001E023F0261028502AB02D402FF022D031C
:1015D0005D039003C70300043D047D04C2040A05B3
:1015E0005705A805FE055906BA0621078D0700080C
:1015F0007A08FB088309140AAE0A500BFD0BB30CE2
:10160000740D410E1A0F0010F410F611071329146F
:101610005C15A116F9176619E91A821C341E002000
:10162000E721EB230E265128B72A412DF22F000087
:1016300000000000000000000000000000000000AA
:10164000000000000000000000000000000000009A
:10165000000000000000000000000000000000008A
:10166000000000000000000000000000FFFFFFFF7E
:10167000FFFFFFFFFFFFFFFFFFFFFFFFFFFFFFFF7A
:10168000FFFFFFFFFFFFFFFFFFFFFFFFFFFFFFFF6A
:10169000FFFFFFFFFFFFFFFFFFFFFFFFFFFFFFFF5A
:1016A000FFFFFFFFFFFFFFFFFFFFFFFFFFFFFFFF4A
:1016B000FFFFFFFFFFFFFFFFFFFFFFFFFFFFFFFF3A
:1016C000FFFFFFFFFFFFFFFFFFFFFFFFFFFFFFFF2A
:1016D000FFFFFFFFFFFFFFFFFFFFFFFFFFFFFFFF1A
:1016E000FFFFFFFFFFFFFFFFFFFFFFFF0000000006
:1016F00000000000000000000000000000000000EA
:1017000000000000000000000000000000000000D9
:1017100000000000000000000000000000000000C9
:101720000000000000000000000000000000FFFFBB
:101730008080404020201010080804040202FFFFAF
:101740008080404020201010080804040202FFFF9F
:101750008080404020201010080804040202FFFF8F
:101760008080404020201010080804040202FFFF7F
:101770008080404020201010080804040202FFFF6F
:101780008080404020201010080804040202FFFF5F
:101790008080404020201010080804040202FFFF4F
:1017A000808040402020101008080404020280833A
:1017B00086898C8F9295989B9EA2A5A7AAADB0B35F
:1017C000B6B9BCBEC1C4C6C9CBCED0D3D5D7DADC7E
:1017D000DEE0E2E4E6E8EAEBEDEEF0F1F3F4F5F654
:1017E000F8F9FAFAFBFCFDFDFEFEFEFFFFFFFFFF2E
:1017F000FFFFFEFEFEFDFDFCFBFAFAF9F8F6F5F43C
:10180000F3F1F0EEEDEBEAE8E6E4E2E0DEDCDAD775
:10181000D5D3D0CECBC9C6C4C1BEBCB9B6B3B0ADAA
:10182000AAA7A5A29E9B9895928F8C898683807C7F
:10183000797673706D6A6764615D5A5855524F4C82
:10184000494643413E3B393634312F2C2A28252343
:10185000211F1D1B1917151412110F0E0C0B0A094D
:101860000706050504030202010101000000000053
:1018700000000101010202030405050607090A0B25
:101880000C0E0F1112141517191B1D1F21232528CB
:101890002A2C2F313436393B3E414346494C4F5276
:0E18A00055585A5D6164676A6D707376797C85
:021BFE000000E5
:101C000025D800018B868B88898A821C070B1CE0F3
:101C1000006ECC6A240E136EF40E146E821C070B39
:101C2000006212D09E929EA2FED71306D8A0140680
:101C30001352F4E11452F2E1030E006201D028D0F5
:101C4000060E006201D026D120EF00F0D38CD38A9B
:101C5000D398D3A4FED79B8C898ADF0E926EBF0ED9
:101C60008A6EBF0E936E8B868B888B9A8B8C070E39
:101C7000946EF19E080E7E6E7F6A0F0EAF6EAB8E75
:101C8000AB88AC8ACA84FF0ECB6E22EEFFF0120046
:101C90008B96400E036E046A056A066A400EFE08C3
:101CA000076E1B0E086ED8A00806000E096ED8A09D
:101CB00009060A6A3F0E071408E0C00E0716400E18
:101CC0000726000E082209220A2201D8BDD7E9CF33
:101CD000DDFFEACFDDFF31D803C0F6FF04C0F7FF18
:101CE00005C0F8FF080E39EC0FF0400E186E00EE3C
:101CF0000BF0080E136E0900F5CFEEFF1306FBE1A3
:101D000051D8080E39EC0FF0080E075E000E085A85
:101D1000095A0A5A075207E1085205E1095203E13C
:101D20000A5201E104D0080E185EDCE0E0D762D868
:101D3000DCCFEAFFDCCFE9FF1200F00E35EC0FF04C
:101D4000770E35EC0FF01D0E35EC0FF0030E016E23
:101D500035EC0FF00350011A2EEC0FF00450011A6D
:101D60002EEC0FF00550011A2EEC0FF00650011A60
:101D70002EEC0FF00750011A2EEC0FF00850011A4C
:101D80002EEC0FF00950011A2EEC0FF00A50011A38
:101D90002EEC0FF001507F0B026A35EC0FF0F70EBE
:101DA00064D81200E9CFDDFFEACFDDFF00EE0BF0D3
:101DB000F00E35EC0FF0770E35EC0FF01D0E35EC14
:101DC0000FF0010E016E35EC0FF0080E196EEF509A
:101DD000011A2EEC0FF0EE501906F9E101507F0BBD
:101DE000021A35EC0FF0F70E40D8DCCFEAFFDCCF5B
:101DF000E9FF1200F00E35EC0FF0770E35EC0FF026
:101E00001D0E35EC0FF0020E016E35EC0FF0000EDA
:101E1000011A2EEC0FF0000E011A2EEC0FF0000E3E
:101E2000011A2EEC0FF0000E011A2EEC0FF0000E2E
:101E3000011A2EEC0FF0000E011A2EEC0FF0000E1E
:101E4000011A2EEC0FF0000E011A2EEC0FF00250CA
:101E50007F0B35EC0FF0F70E08D81200166E0F0B43
:101E600004D816380F0B01D812009EA8FED7AD6E0D
:101E70001200E8520EE0F36E200EF302CC6A9E923E
:101E80009EA2FED7F306D8A0F406F352F8E1F4526E
:101E9000F6E11200899A7DD8030E1E1805E0110E96
:101EA0001E1865D0F8D7D0D61FC003F021C004F0AB
:101EB00023C005F025C006F027C007F029C008F0B0
:101EC0002BC009F02DC00AF055D815A242D003C08E
:101ED000F6FF04C0F7FF05C0F8FFA68EA69CA684F7
:101EE000A688550EA76EAA0EA76EA6820A0051D824
:101EF0008B768B78897A020E1E1839E0010E1E1837
:101F000028E138D815A225D01FC0F5FF0F0021C049
:101F1000F5FF0F0023C0F5FF0F0025C0F5FF0F00F0
:101F200027C0F5FF0F0029C0F5FF0F002BC0F5FFFC
:101F30000F002DC0F5FF0F00A68EA69CA684550E9F
:101F4000A76EAA0EA76EA6823F0EF614C6E0CFD7E4
:101F50007BD68B968B78899A136A100E146E9E929C
:101F60009EA2FED71306D8B4142EF9D7F2D79EA896
:101F7000FED7FF0015921E501F1821182318251890
:101F8000271829182B182D187F0B2F18D8B4158255
:101F90001200E9CFDDFFEACFDDFF00EE1BF0316A72
:101FA0001CD8F00E3262FCD732C0EEFF150E316E37
:101FB00014D832C0EEFF312EFBD700EE1FF0080E12
:101FC000316E010EEB38EF10EE6EEE6E312EF9D75A
:101FD000DCCFEAFFDCCFE9FF12009EAAFED7ABA45C
:101FE00006D0AE509EBAFBD7AB98AB88F6D7AECF33
:0A1FF00032F032C0ADFF120027D618
:020000040030CA
:0100000000FF
:01000100A856
:010002001AE3
:0100030000FC
:0100050000FA
:010006008178
:0100080003F4
:01000900C036
:01000A0003F2
:01000B00E014
:01000C0003F0
:01000D0040B2
:0200000400F00A
:06000000FFFF0640400076
:00000001FF
