:020000040000FA
:06000000FA6A00EF1CF09B
:020006000000F8
:0400080022EF00F0F3
:0400180024EF00F0E1
:10004000CFEF00F026EF00F065EF00F003C0DDFF1A
:1000500004C0DDFF9DA257EF00F09EA257EF00F015
:100060009E92020E1E1804E1215206E04CEF00F0B1
:10007000225202E04CEF00F002EC06F09EA20CD0FF
:100080009E92212A060E2160216A222A020E2260F7
:10009000226A392AD8B03A2A212A060E2160216A1A
:1000A000222A020E2260226A392AD8B03A2AF2A8FD
:1000B00060EF00F0F2A260EF00F0F29264EC09F061
:1000C000DCCF04F0DCCF03F01100006ED8CF01F0DC
:1000D000E0CF02F003C0DDFF9EBADDEC01F0F0A638
:1000E0007DEF00F0F0A07DEF00F0F090000E1F6EAD
:1000F0001A0E3B6E116A126A1790F0A886EF00F094
:10010000F0A286EF00F0F09286EC09F0F2AAC7EFB9
:1001100000F0F2A4C7EF00F0F294000E1F1803E005
:10012000010E1F1804E18B868B88898A30D0000E5F
:100130001E620ED03C5204E18B868B98899A27D0A0
:100140003D2E25D08B768B98899A3CC03DF01FD0F0
:10015000010E1E620ED03C5204E18B968B88899A68
:1001600016D03D2E14D08B968B78899A3CC03DF0EA
:100170000ED03C5204E18B968B98898A08D03D2E94
:1001800006D08B968B98897A3CC03DF000D0DCCFAE
:1001900003F002C0E0FF005001C0D8FF10000001D2
:1001A000E8CF3FF04AEC01F0E1EC03F05BEC03F048
:1001B000C0EC01F0EAEC03F061EC09F0F28E020E03
:1001C0001E625FD017A004D0B1EC03F0179059D095
:1001D000020E1F6256D010BC02D010A652D017B229
:1001E00050D017B60AD0800EE16FE26FE36FE46F74
:1001F00077EC03F0E8B045D01786B1C015F0B2C077
:1002000016F03F0E1D6406D01550135C156E165087
:100210001458166E92EC03F0E16F010E236430D097
:10022000B3C015F0B4C016F03F0E1D6406D01550D3
:10023000135C156E16501458166E92EC03F0E26FB4
:10024000B5C015F0B6C016F03F0E1D6406D01550AF
:10025000135C156E16501458166E92EC03F0E36F93
:10026000B7C015F0B8C016F03F0E1D6406D015508B
:10027000135C156E16501458166E92EC03F0E46F72
:10028000178218A403D01894CAEC04F0ACEC08F060
:10029000DFEF00F063EC01F06AEC01F07CEC01F0C0
:1002A00082EC01F089EC01F08AEC01F08EEC01F0B7
:1002B00092EC01F095EC01F09BEC01F0ADEC01F05B
:1002C000BDEC01F01200D38CD38AD398D3A4FED70F
:1002D0009B8C1200898ADF0E926EBF0E8A6EBF0E53
:1002E000936E8B868B888B9A8B8C070E946EF19E07
:1002F000080E7E6E7F6A12000F0EAF6EAB8EAB885B
:10030000AC8A1200D59CD59AD596D594D582D59035
:1003100012001200CA84FF0ECB6E1200BD86BD848F
:10032000BE6A1200C68AC78C1200C286C284C2800E
:10033000C088C0821200D08EF28CF28AF294F292BF
:10034000F19CF19AF198F194F09EF09CF092F0906B
:100350009F9A9E929D8A9D821200E96AEA6AEE6ADD
:10036000010EEA62FCD7E96A020EEA6EEE6A030E3B
:10037000EA62FCD7E96AEA6A120022EEFFF0120094
:1003800003C0DDFFE9CFDDFFEACFDDFF00EE58F06F
:100390000B6A0C6A0D6A0E6A0F6A10901092108434
:1003A000190E036EFF0EEE6E032EFDD7DCCFEAFFB3
:1003B000DCCFE9FFDCCF03F0120003C0DDFF04C097
:1003C000DDFFE9CFDDFFEACFDDFF00EE40F0ABA4BB
:1003D00007D0AE509EBAFBD7AB98AB8862EF02F065
:1003E000AECF03F010B403C0ADFFABA202D0AB9808
:1003F000AB8803AE39D0F00E036401D035D00E6A5D
:100400000350F00B046EC00E041804E0D00E041864
:1004100001E003D0020E0E6E18D0800E04180DE01D
:10042000900E04180AE0A00E041807E0B00E04189D
:1004300004E0E00E041801E003D0030E0E6E05D0B8
:10044000F00E041802E1F70E0E6E0E520AE0108054
:1004500003C040F0010E0D6E03C00BF00EC00CF097
:100460002ED010900B6A2BD010B004D0F00E036089
:1004700026D019D003AE03D0F70E031820E1180ED2
:100480000D60EFD70D5003C0EBFF0D2A0D500E622B
:1004900001D003D0F70E036212D00D500E6E1090F3
:1004A0006BEC02F00CD00B520AE010800BC040F055
:1004B0000CC00EF0010E03C0EBFF020E0D6E9EBAD3
:1004C000E7EF01F0DCCFEAFFDCCFE9FFDCCF04F09F
:1004D000DCCF03F0120003C0DDFF04C0DDFF05C068
:1004E000DDFF06C0DDFFE9CFDDFFEACFDDFF00EE77
:1004F00040F0000EEB50F00B046E010EEB50056E59
:10050000020EEB50066E900E046204D0065202E119
:10051000800E046E900E046204D0055051EC04F07D
:10052000A9D0800E046204D0055078EC04F0A2D06B
:10053000E00E046219D0010E201816E041C019F037
:10054000D8904230D8B0198E1A6E1B6A1C6A200EE1
:100550001A6007D0200E1A5ED8A01B06D8A01C0671
:1005600089D0200E1A5E86D0B00E046263D005508A
:10057000780A03E005507B0A04E1FF0E78EC04F0F2
:1005800079D00550790A01E1FF000550400A0DE1DC
:100590003F0E066405D0000E206E64EC09F06AD0B0
:1005A000020E206E64EC09F065D005507E0A05E16C
:1005B000010E206E64EC09F05DD005507F0A05E164
:1005C000020E206E64EC09F055D00550010A1EE1C0
:1005D000010E20181BE006C01DF0AC0E246E160E96
:1005E000256E000E266E2C0E276E150E286E000E40
:1005F000296E0650245ED8A02506D8A026060650EF
:100600002726D8B0282AD8B0292A34D00550490A3C
:1006100007E1400E036E0628D890E830035C376E81
:100620000550480A07E1400E036E0628D890E830CE
:10063000035C386EC00E04620ED00550020804E35D
:1006400005C01EF0188405D00F500564188286EC92
:1006500009F005C00FF0F00E04620CD0010EEB5053
:10066000770A08E1020EEB501D0A04E1030EEB507D
:100670001E0A00E1DCCFEAFFDCCFE9FFDCCF06F0A9
:10068000DCCF05F0DCCF04F0DCCF03F012001794D0
:10069000F2BE1784F29EE8CFDDFFC950C69EDCCFC4
:1006A000E8FFC96EC6BE04D09E969EA6FED7C9506E
:1006B00017B4F28E12006FEC03F0000E82EC03F020
:1006C000116A126A156A166A17901792000EE4EC06
:1006D00003F0136E010EE4EC03F0146E12008B9C19
:1006E000060E47EC03F0C6BEFBD78B8C12008B9C2A
:1006F000050E47EC03F0C6BEFBD7000E47EC03F037
:100700008B8C120003C0DDFF036E8B9C010E47EC47
:1007100003F0C6BEFBD7035047EC03F08B8CDCCF55
:1007200003F0120003C0DDFFE9CFDDFFEACFDDFFFC
:1007300000EE71F08B9C030E47EC03F0C6BEFBD7B6
:10074000165047EC03F0155047EC03F0000E47EC51
:1007500003F08B8CDCCFEAFFDCCFE9FFDCCF03F0CA
:10076000120003C0DDFFE9CFDDFFEACFDDFFF3CFED
:10077000DDFFF4CFDDFF00EE71F06FEC03F08B9C3A
:10078000020E47EC03F01204400DF45047EC03F066
:10079000F35047EC03F0036A0350EB5047EC03F0CF
:1007A000032A400E0362F8D717968B8CDCCFF4FF38
:1007B000DCCFF3FFDCCFEAFFDCCFE9FFDCCF03F0D7
:1007C0001200A68EA69C1200A96EA69EA680A85016
:1007D000A68E120003C0DDFFE9CFDDFFEACFDDFF0B
:1007E000196A1A6A1B6A1C6A1D6A000E1E6E020EC6
:1007F0001F6E000E206E040E236E216A226A109670
:100800001098109A109C189018921894AC0E246EA0
:10081000160E256E000E266E2C0E276E150E286EF7
:10082000000E296E2A802A822A842A862B6A2F6A41
:10083000306A316A326A3368346835683668396AD2
:100840003A6A3B6A3F0E376E100E386E00EEB9F012
:10085000080E036EEE6A032EFDD700EED1F0100EE7
:10086000036EEE6A032EFDD700EEE1F0040E036E78
:10087000800EEE6E032EFCD700EEC1F0080E036E64
:10088000EE6A032EFDD700EEC9F0080E036EEE6A85
:10089000032EFDD7DCCFEAFFDCCFE9FFDCCF03F08E
:1008A000120003C0DDFF04C0DDFF05C0DDFFE9CF9E
:1008B000DDFFEACFDDFF00EE58F0036E180E046E88
:1008C0000404EB50056E045005C0EBFF042EF8D76E
:1008D00003C058F0DCCFEAFFDCCFE9FFDCCF05F046
:1008E000DCCF04F0DCCF03F0108ABCEC04F0120083
:1008F00003C0DDFF04C0DDFF05C0DDFF06C0DDFF76
:10090000E9CFDDFFEACFDDFF00EE58F0036E046AA9
:10091000031C04E00450EB50036202D00450EB6867
:10092000042A190E0462F4D70668065216E0066A15
:10093000046A0450EB1C0CE10428EB1C09E0066877
:100940000428EB50056E045005C0EBFF0428EB684B
:10095000042A180E0462EDD7E8D7DCCFEAFFDCCF1B
:10096000E9FFDCCF06F0DCCF05F0DCCF04F0DCCF14
:1009700003F0BCEC04F01200581C03E11088109640
:1009800007D010AC03D01098109602D010981086A3
:100990001884120003C0DDFFE9CFDDFFEACFDDFFE1
:1009A000E1CFDDFFE2CFDDFFF6CFDDFFF7CFDDFFEB
:1009B000F8CFDDFFF5CFDDFF00EE58F010EEB9F017
:1009C000036A020E1E1810E00350EBBE1DD0D89033
:1009D000EB342C0FF66E130ED8B0010FF76E000E2D
:1009E000D8B0010FF86E18D00350EBBE0DD0D890E0
:1009F000EB342C0FF66E140ED8B0010FF76E000E0C
:100A0000D8B0010FF86E08D0D8900334F29EE36A94
:100A1000010FE36AF28E0BD00900D8900334F29EE6
:100A2000F5CFE3FF0900010FF5CFE3FFF28E032AB4
:100A3000040E0318C6E1DCCFF5FFDCCFF8FFDCCFF6
:100A4000F7FFDCCFF6FFDCCFE2FFDCCFE1FFDCCF4E
:100A5000EAFFDCCFE9FFDCCF03F030EC05F0120059
:100A600003C0DDFF04C0DDFF05C0DDFF06C0DDFF04
:100A700007C0DDFF08C0DDFF09C0DDFFE9CFDDFFF6
:100A8000EACFDDFFE1CFDDFFE2CFDDFF00EEB9F021
:100A900010EEC1F01880010E236491D0036A096A38
:100AA000046A010E056ED8900434E35204E1010F8C
:100AB000E35201E136D0066A010E076ED890043485
:100AC000E350086ED8900634EB50081821E1D89016
:100AD0000434010FE350086ED8900634010FEB5038
:100AE000081816E105500312075009120450E9CF07
:100AF000DDFFEACFDDFF00EE2FF0EB50010BDCCF86
:100B0000EAFFDCCFE9FF0DE0045018EC09F009D052
:100B1000D8900736062A0650040AD0E104503CEC6F
:100B200009F0D8900536042A0450040ABCE1066A8C
:100B3000010E076E075009143BE1D8900634EB52C2
:100B400003E1010FEB5234E0039E046A010E056ECF
:100B5000D890043403BE06D0E35220E1010FE352E3
:100B60001DE103D00550031419E105502B1416E1C3
:100B7000D8900634EB50086ED890043408C0E3FFD8
:100B8000D8900634010FEB50086ED8900434010F52
:100B900008C0E3FF045018EC09F00AD0D8900536DD
:100BA000042A0450040AD4E103BE02D0038ECDD738
:100BB000D8900736062A0650040ABCE10BD0336AE7
:100BC000B9C0C1F0BAC0C2F0C36BC46BC56BC66B11
:100BD000C76BC86B1890DCCFE2FFDCCFE1FFDCCF46
:100BE000EAFFDCCFE9FFDCCF09F0DCCF08F0DCCF97
:100BF00007F0DCCF06F0DCCF05F0DCCF04F0DCCF73
:100C000003F01200E9CFDDFFEACFDDFFE1CFDDFF2A
:100C1000E2CFDDFFF6CFDDFFF7CFDDFFF8CFDDFF61
:100C2000F5CFDDFFF3CFDDFFF4CFDDFF00EE71F098
:100C3000000E1F1805E0010E1F1802E0ACEF06F0D1
:100C4000C282C2B2FED7C450360FD8B0FF0E2C6E8F
:100C5000800E2C5C06E3D890E8342C24D8B0FF0E2C
:100C600006D0E86CD890E8342C5CD8A0000E2C6E2E
:100C7000D8902C30D890E830600FBE6E82A297EFEB
:100C800008F0020E1E6246EF06F006D0020E1F6E3E
:100C9000800EBE6E97EF08F03B5203E03B0697EFE5
:100CA00008F0010E1F6E11502CC0EBFF112A400EF0
:100CB00011623DD2116A1780122AFA0E1218D8B4A6
:100CC00005D010B603D010AA97EF08F0020E1F6EE1
:100CD000800EBE6E400E1202010EF35ED8A0F40626
:100CE000F3CF13F0F4CF14F0000EA96E13C0A8FFD9
:100CF000A69EA69CA684550EA76EAA0EA76EA682D7
:100D0000A6B2FED7A694A68E010EA96E14C0A8FFA7
:100D1000A69EA69CA684550EA76EAA0EA76EA682B6
:100D2000A6B2FED7A694A68E03C0DDFFE9CFDDFFF5
:100D3000EACFDDFF00EED1F02350036EEE6AEE6ADB
:100D4000EE6AEE6A032EFAD7DCCFEAFFDCCFE9FFCA
:100D5000DCCF03F01098EBD110BC05D010A603D067
:100D60001096108C17922BB013D018B00DD0000E27
:100D70001E6206D0800EE15DD8A0E86C040804E392
:100D8000C1C0C9F0C2C0CAF0C95302E1CA5348E0A9
:100D90002AB007D0C951D127CA51D223000ED3237C
:100DA000D4232A901950D1271A50D2231B50D32371
:100DB0001C50D423020E1E6215D017A23AD010AADE
:100DC00003D0000E201805E0D251135CD351145803
:100DD00004E2D16BD26BD36BD46BD2C0B1F0D3C071
:100DE000B2F027D0000E1E620CD0D2512424F66E31
:100DF0002550D8B0010FF76E2650D8B0010FF86E0D
:100E00000BD0D2512724F66E2850D8B0010FF76EC0
:100E10002950D8B0010FF86E0800F5CFE1F009D0E5
:100E20002A80800EE16FC96BCA6BD16BD26BD36B1A
:100E3000D46B2BB213D018B00DD0000E1E6206D0AA
:100E4000800EE25DD8A0E86C040804E3C3C0CBF0D8
:100E5000C4C0CCF0CB5302E1CC5348E02AB207D057
:100E6000CB51D527CC51D623000ED723D8232A9295
:100E70001950D5271A50D6231B50D7231C50D823DE
:100E8000020E1E6215D017A23AD010AA03D0000E8F
:100E9000201805E0D651135CD751145804E2D56BE5
:100EA000D66BD76BD86BD6C0B3F0D7C0B4F027D011
:100EB000000E1E620CD0D6512424F66E2550D8B0F8
:100EC000010FF76E2650D8B0010FF86E0BD0D65137
:100ED0002724F66E2850D8B0010FF76E2950D8B0ED
:100EE000010FF86E0800F5CFE2F009D02A82800EDB
:100EF000E26FCB6BCC6BD56BD66BD76BD86B2BB44F
:100F000013D018B00DD0000E1E6206D0800EE35D27
:100F1000D8A0E86C040804E3C5C0CDF0C6C0CEF08C
:100F2000CD5302E1CE5348E02AB407D0CD51D927A2
:100F3000CE51DA23000EDB23DC232A941950D92763
:100F40001A50DA231B50DB231C50DC23020E1E62D6
:100F500015D017A23AD010AA03D0000E201805E031
:100F6000DA51135CDB51145804E2D96BDA6BDB6B9A
:100F7000DC6BDAC0B5F0DBC0B6F027D0000E1E6225
:100F80000CD0DA512424F66E2550D8B0010FF76E3C
:100F90002650D8B0010FF86E0BD0DA512724F66E28
:100FA0002850D8B0010FF76E2950D8B0010FF86E55
:100FB0000800F5CFE3F009D02A84800EE36FCD6BF3
:100FC000CE6BD96BDA6BDB6BDC6B2BB613D018B046
:100FD0000DD0000E1E6206D0800EE45DD8A0E86C35
:100FE000040804E3C7C0CFF0C8C0D0F0CF5302E17B
:100FF000D05348E02AB607D0CF51DD27D051DE23A9
:10100000000EDF23E0232A961950DD271A50DE2335
:101010001B50DF231C50E023020E1E6215D017A2C6
:101020003AD010AA03D0000E201805E0DE51135C60
:10103000DF51145804E2DD6BDE6BDF6BE06BDEC06A
:10104000B7F0DFC0B8F027D0000E1E620CD0DE5122
:101050002424F66E2550D8B0010FF76E2650D8B074
:10106000010FF86E0BD0DE512724F66E2850D8B051
:10107000010FF76E2950D8B0010FF86E0800F5CFB8
:10108000E4F009D02A86800EE46FCF6BD06BDD6B65
:10109000DE6BDF6BE06B020E1E1801E117B2109AD7
:1010A00017922D6A2E6A800EE15D04E3D8903330EA
:1010B000E15D03D0D8903330E125D8B6800E2D26DF
:1010C000D8B02E2A800EE25D04E3D8903430E25D81
:1010D00003D0D8903430E225D8B6800E2D26D8B073
:1010E0002E2A800EE35D04E3D8903530E35D03D013
:1010F000D8903530E325D8B6800E2D26D8B02E2ACC
:10110000800EE45D04E3D8903630E45D03D0D890DF
:101110003630E425D8B6800E2D26D8B02E2AD890A9
:101120002E322D32D8902E322D322DC0BEFFDCCF84
:10113000F4FFDCCFF3FFDCCFF5FFDCCFF8FFDCCF33
:10114000F7FFDCCFF6FFDCCFE2FFDCCFE1FFDCCF47
:10115000EAFFDCCFE9FF120003C0DDFF04C0DDFFC2
:1011600005C0DDFFE9CFDDFFEACFDDFF620E395CB0
:10117000020E3A58D8A051D0396A3A6A036A010E71
:10118000046E04502B1443E100EE2FF00350EBB635
:1011900003D0EBB01BD03BD000EE33F00350EBCFCD
:1011A00005F03750055C0AE309E00350EBCF05F08A
:1011B0003750055E035005C0EBFF29D000EE2FF03D
:1011C0000350EB9600EE33F0EB6A21D000EE33F0E3
:1011D0000350EBCF05F0385005240BE2E81C09E082
:1011E0000350EBCF05F038500526035005C0EBFF48
:1011F0000ED000EE2FF00350EB9000EE33F0EB68D2
:1012000000EEC1F0D8900334EB6A010FEB6AD8907E
:101210000436032A23500362B4D7DCCFEAFFDCCFC5
:10122000E9FFDCCF05F0DCCF04F0DCCF03F01200E7
:1012300003C0DDFFE9CFDDFFEACFDDFF036E00EE87
:1012400033F0400E376207D00350EB6A00EE2FF008
:10125000EB96EB900AD0400E381802E10350EB6891
:1012600000EE2FF00350EB86EB90DCCFEAFFDCCFF3
:10127000E9FFDCCF03F0120003C0DDFFE9CFDDFFA3
:10128000EACFDDFF036E400E38620FD000EE2FF084
:101290000350EB90EB9600EEC1F0D8900334E926B2
:1012A000D8B0EA2AEE6AEF6A05D000EE2FF00350BC
:1012B000EB80EB96DCCFEAFFDCCFE9FFDCCF03F07D
:1012C00012003C6A3D6A12001884202A030E206036
:1012D000206A000E206207D0040E236E000E3C6EC2
:1012E0003D6E2B6A12D0010E206209D0040E236ECF
:1012F000020E3C6E3D6E2A1C0F0B2B6E06D0010EAB
:10130000236E010E3C6E3D6E2B6A1200188418A2EB
:1013100006D018921E0609E2020E1E6E06D01E2A84
:10132000020E1E6402D0000E1E6E12002200240067
:10133000260029002B002E003000330036003A0032
:101340003D004100450049004D00520056005C0040
:10135000610067006D0073007A00810089009100D0
:101360009A00A300AD00B700C200CE00DA00E7008B
:10137000F400030112012301340146015A016E01F8
:1013800084019B01B301CD01E9010602250245025A
:1013900068028C02B302DC020803360367039B0376
:1013A000D2030C0449048B04D00419056705B90560
:1013B00010066C06CE063507A30717089308150913
:1013C0009F09320ACD0A720B200CD80C9C0D6B0EB3
:1013D000460F2F1025112A123F1364149A15E31695
:1013E0003F18B119381BD61C8D1E5E204B22552488
:1013F0007E26C828342BC62D7F3061336F36AC393A
:101400001A3DBC409544A948FC4C8F5169568C5BF1
:10141000FE60C266DF6C5873347A78812B895391F1
:10142000F7991FA3D2AC19B7FCC185CD08000800FD
:1014300009000A000A000B000B000C000D000D0053
:101440000E000F0010001100120013001400150010
:101450001700180019001B001D001E0020002200AC
:101460002400260028002B002D0030003300360019
:1014700039003C004000440048004C005100550039
:101480005B00600066006C007200790080008800DC
:1014900090009800A100AB00B500C000CB00D700C1
:1014A000E400F20000010F011F0130014301560169
:1014B0006A0180019601AF01C801E30100021E022A
:1014C0003F0261028502AB02D402FF022D035D03DD
:1014D0009003C70300043D047D04C2040A055705B8
:1014E000A805FE055906BA0621078D0700087A08E7
:1014F000FB088309140AAE0A500BFD0BB30C740DE4
:10150000410E1A0F0010F410F611071329145C1580
:10151000A116F9176619E91A821C341E0020E7216A
:10152000EB230E265128B72A412DF22F0000000090
:1015300000000000000000000000000000000000AB
:10154000000000000000000000000000000000009B
:10155000000000000000000000000000000000008B
:1015600000000000000000000000FFFFFFFFFFFF81
:10157000FFFFFFFFFFFFFFFFFFFFFFFFFFFFFFFF7B
:10158000FFFFFFFFFFFFFFFFFFFFFFFFFFFFFFFF6B
:10159000FFFFFFFFFFFFFFFFFFFFFFFFFFFFFFFF5B
:1015A000FFFFFFFFFFFFFFFFFFFFFFFFFFFFFFFF4B
:1015B000FFFFFFFFFFFFFFFFFFFFFFFFFFFFFFFF3B
:1015C000FFFFFFFFFFFFFFFFFFFFFFFFFFFFFFFF2B
:1015D000FFFFFFFFFFFFFFFFFFFFFFFFFFFFFFFF1B
:1015E000FFFFFFFFFFFFFFFFFFFF00000000000005
:1015F00000000000000000000000000000000000EB
:1016000000000000000000000000000000000000DA
:1016100000000000000000000000000000000000CA
:10162000000000000000000000000000FFFF8080BC
:10163000404020201010080804040202FFFF8080B0
:10164000404020201010080804040202FFFF8080A0
:10165000404020201010080804040202FFFF808090
:10166000404020201010080804040202FFFF808080
:10167000404020201010080804040202FFFF808070
:10168000404020201010080804040202FFFF808060
:10169000404020201010080804040202FFFF808050
:1016A000404020201010080804040202808386892C
:1016B0008C8F9295989B9EA2A5A7AAADB0B3B6B900
:1016C000BCBEC1C4C6C9CBCED0D3D5D7DADCDEE030
:1016D000E2E4E6E8EAEBEDEEF0F1F3F4F5F6F8F922
:1016E000FAFAFBFCFDFDFEFEFEFFFFFFFFFFFFFF22
:1016F000FEFEFEFDFDFCFBFAFAF9F8F6F5F4F3F157
:10170000F0EEEDEBEAE8E6E4E2E0DEDCDAD7D5D3B2
:10171000D0CECBC9C6C4C1BEBCB9B6B3B0ADAAA702
:10172000A5A29E9B9895928F8C898683807C7976E2
:1017300073706D6A6764615D5A5855524F4C4946E3
:1017400043413E3B393634312F2C2A282523211F93
:101750001D1B1917151412110F0E0C0B0A09070681
:101760000505040302020101010000000000000061
:101770000101010202030405050607090A0B0C0E0C
:101780000F1112141517191B1D1F212325282A2C90
:101790002F313436393B3E414346494C4F52555820
:0C17A0005A5D6164676A6D707376797C35
:0237FE000000C9
:103800002BEC1CF000018B868B88898A821C070BAD
:1038100020E0006ECC6A240E136EF40E146E821C2F
:10382000070B006216D09E929EA2FED71306D8A068
:1038300014061352F4E11452F2E1030E006201D0B7
:1038400082D0060E006201D08AD1070E006201D03C
:1038500075D220EF00F044EC1CF04BEC1CF05DEC5A
:103860001CF063EC1CF069EC1CF06AEC1CF06EECD4
:103870001CF072EC1CF075EC1CF07BEC1CF090EC76
:103880001CF0A0EC1CF01200D38CD38AD398D3A4E4
:10389000FED79B8C1200898ADF0E926EBF0E8A6E55
:1038A000BF0E936E8B868B888B9A8B8C070E946ED3
:1038B000F19E080E7E6E7F6A12000F0EAF6EAB8E09
:1038C000AB88AC8A1200D59CD59AD596D594D59064
:1038D00012001200CA84FF0ECB6E1200BD86BD849A
:1038E000BE6A1200C68AC78C1200C286C284C28019
:1038F000C088C0821200D08EF28CF28AF288F294D4
:10390000F292F19CF19AF198F194F09EF09CF0887B
:10391000F086F092F0909F9A9E929D8A9D8212006E
:10392000E96AEA6AEE6A010EEA62FCD7E96A020E07
:10393000EA6EEE6A030EEA62FCD7E96AEA6A1200EE
:1039400022EEFFF012008B96400E036E046A056AA9
:10395000066A400EFE08076E370E086ED8A00806ED
:10396000000E096ED8A009060A6A3F0E071408E087
:10397000C00E0716400E0726000E082209220A2252
:10398000C4EC1CF029EF1CF0E9CFDDFFEACFDDFF2E
:10399000FDEC1CF003C0F6FF04C0F7FF05C0F8FF04
:1039A000080E9EEC1DF0400E186E00EE0BF0080E97
:1039B000136E0900F5CFEEFF1306FBE133EC1DF0AB
:1039C000080E9EEC1DF0080E075E000E085A095AFC
:1039D0000A5A075207E1085205E1095203E10A5267
:1039E00001E104D0080E185EDBE0DFD75CEC1DF0CF
:1039F000DCCFEAFFDCCFE9FF1200F00E9AEC1DF0FD
:103A0000770E9AEC1DF01D0E9AEC1DF0030E016E60
:103A10009AEC1DF00350011A91EC1DF00450011AAC
:103A200091EC1DF00550011A91EC1DF00650011AA1
:103A300091EC1DF00750011A91EC1DF00850011A8D
:103A400091EC1DF00950011A91EC1DF00A50011A79
:103A500091EC1DF001507F0B026A9AEC1DF0F70EFD
:103A60009AEC1DF01200E9CFDDFFEACFDDFF00EE9A
:103A70000BF0F00E9AEC1DF0770E9AEC1DF01D0E77
:103A80009AEC1DF0010E016E9AEC1DF0080E196EF5
:103A9000EF50011A91EC1DF0EE501906F9E10150BA
:103AA0007F0B021A9AEC1DF0F70E9AEC1DF0DCCF9A
:103AB000EAFFDCCFE9FF1200F00E9AEC1DF0770E62
:103AC0009AEC1DF01D0E9AEC1DF0020E016E9AECA0
:103AD0001DF0000E011A91EC1DF0000E011A91EC80
:103AE0001DF0000E011A91EC1DF0000E011A91EC70
:103AF0001DF0000E011A91EC1DF0000E011A91EC60
:103B00001DF0000E011A91EC1DF0000E011A91EC4F
:103B10001DF002507F0B9AEC1DF0F70E9AEC1DF091
:103B20001200166E0F0B9AEC1DF016380F0B9AEC64
:103B30001DF012009EA8FED7AD6E1200E8520EE0F6
:103B4000F36E200EF302CC6A9E929EA2FED7F3067D
:103B5000D8A0F406F352F8E1F452F6E11200899A83
:103B600068EC1EF0030E1E1807E0110E1E1856EF2B
:103B70001EF0F6D729EF1CF01FC003F021C004F09F
:103B800023C005F025C006F027C007F029C008F0C3
:103B90002BC009F02DC00AF059EC1EF015A245D03B
:103BA00003C0F6FF04C0F7FF05C0F8FFA68EA69C71
:103BB000A684A688550EA76EAA0EA76EA6820A0036
:103BC00068EC1EF08B768B78897A020E1E186EE0F8
:103BD000010E1E1838E159EC1EF015A259D01FC075
:103BE000F5FF0F0021C0F5FF0F0023C0F5FF0F0008
:103BF00025C0F5FF0F0027C0F5FF0F0029C0F5FF16
:103C00000F002BC0F5FF0F002DC0F5FF0F00A68E93
:103C1000A69CA684550EA76EAA0EA76EA6823F0E7E
:103C2000F614C4E0CDD729EF1CF08B768B98899AD7
:103C3000136A100E146E9E929EA2FED71306D8B47D
:103C4000142EF9D7F2D710EE1BF03F6A3FC0A9FF40
:103C5000E6CFA8FFA69EA69CA684550EA76EAA0E28
:103C6000A76EA682A6B2FED7A694A68E3F2A160EEF
:103C70003F62ECD78B968B78899A136A100E146E7C
:103C80009E929EA2FED71306D8B4142EF9D7F2D76F
:103C90008B968B98897A136A100E146E9E929EA250
:103CA000FED71306D8B4142EF9D7F2D79EA8FED7A4
:103CB000FF0015921E501F182118231825182718C9
:103CC00029182B182D187F0B2F18D8B41582120025
:103CD000E9CFDDFFEACFDDFF00EE1BF0316A8EECAD
:103CE0001EF0F00E3262FBD732C0EEFF150E316EC1
:103CF0008EEC1EF032C0EEFF312EFAD700EE1FF030
:103D0000080E316E010EEB38EF10EE6EEE6E312EB6
:103D1000F9D7DCCFEAFFDCCFE9FF12009EAAFED77D
:103D2000ABA407D0AE509EBAFBD7AB98AB888EEF52
:103D30001EF0AECF32F032C0ADFF120029EF1CF002
:020000040030CA
:01000100A856
:010002001BE2
:0100030000FC
:0100050000FA
:0100060001F8
:0100080003F4
:01000900C036
:01000A0003F2
:01000B00E014
:01000C0003F0
:01000D0040B2
:00000001FF
