:020000040000FA
:06000000FA6A00EF0EF0A9
:020006000000F8
:0400080022EF00F0F3
:0400180024EF00F0E1
:1000400026EF00F026EF00F026EF00F026EF00F09C
:021BFE000000E5
:101C000025D800018B868B88898A821C070B1CE0F3
:101C1000006ECC6A240E136EF40E146E821C070B39
:101C2000006212D09E929EA2FED71306D8A0140680
:101C30001352F4E11452F2E1030E006201D028D0F5
:101C4000060E006201D026D120EF00F0D38CD38A9B
:101C5000D398D3A4FED79B8C898ADF0E926EBF0ED9
:101C60008A6EBF0E936E8B868B888B9A8B8C070E39
:101C7000946EF19E080E7E6E7F6A0F0EAF6EAB8E75
:101C8000AB88AC8ACA84FF0ECB6E22EEFFF0120046
:101C90008B96400E036E046A056A066A400EFE08C3
:101CA000076E1B0E086ED8A00806000E096ED8A09D
:101CB00009060A6A3F0E071408E0C00E0716400E18
:101CC0000726000E082209220A2201D8BDD7E9CF33
:101CD000DDFFEACFDDFF31D803C0F6FF04C0F7FF18
:101CE00005C0F8FF080E39EC0FF0400E186E00EE3C
:101CF0000BF0080E136E0900F5CFEEFF1306FBE1A3
:101D000051D8080E39EC0FF0080E075E000E085A85
:101D1000095A0A5A075207E1085205E1095203E13C
:101D20000A5201E104D0080E185EDCE0E0D762D868
:101D3000DCCFEAFFDCCFE9FF1200F00E35EC0FF04C
:101D4000770E35EC0FF01D0E35EC0FF0030E016E23
:101D500035EC0FF00350011A2EEC0FF00450011A6D
:101D60002EEC0FF00550011A2EEC0FF00650011A60
:101D70002EEC0FF00750011A2EEC0FF00850011A4C
:101D80002EEC0FF00950011A2EEC0FF00A50011A38
:101D90002EEC0FF001507F0B026A35EC0FF0F70EBE
:101DA00064D81200E9CFDDFFEACFDDFF00EE0BF0D3
:101DB000F00E35EC0FF0770E35EC0FF01D0E35EC14
:101DC0000FF0010E016E35EC0FF0080E196EEF509A
:101DD000011A2EEC0FF0EE501906F9E101507F0BBD
:101DE000021A35EC0FF0F70E40D8DCCFEAFFDCCF5B
:101DF000E9FF1200F00E35EC0FF0770E35EC0FF026
:101E00001D0E35EC0FF0020E016E35EC0FF0000EDA
:101E1000011A2EEC0FF0000E011A2EEC0FF0000E3E
:101E2000011A2EEC0FF0000E011A2EEC0FF0000E2E
:101E3000011A2EEC0FF0000E011A2EEC0FF0000E1E
:101E4000011A2EEC0FF0000E011A2EEC0FF00250CA
:101E50007F0B35EC0FF0F70E08D81200166E0F0B43
:101E600004D816380F0B01D812009EA8FED7AD6E0D
:101E70001200E8520EE0F36E200EF302CC6A9E923E
:101E80009EA2FED7F306D8A0F406F352F8E1F4526E
:101E9000F6E11200899A7DD8030E1E1805E0110E96
:101EA0001E1865D0F8D7D0D61FC003F021C004F0AB
:101EB00023C005F025C006F027C007F029C008F0B0
:101EC0002BC009F02DC00AF055D815A242D003C08E
:101ED000F6FF04C0F7FF05C0F8FFA68EA69CA684F7
:101EE000A688550EA76EAA0EA76EA6820A0051D824
:101EF0008B768B78897A020E1E1839E0010E1E1837
:101F000028E138D815A225D01FC0F5FF0F0021C049
:101F1000F5FF0F0023C0F5FF0F0025C0F5FF0F00F0
:101F200027C0F5FF0F0029C0F5FF0F002BC0F5FFFC
:101F30000F002DC0F5FF0F00A68EA69CA684550E9F
:101F4000A76EAA0EA76EA6823F0EF614C6E0CFD7E4
:101F50007BD68B968B78899A136A100E146E9E929C
:101F60009EA2FED71306D8B4142EF9D7F2D79EA896
:101F7000FED7FF0015921E501F1821182318251890
:101F8000271829182B182D187F0B2F18D8B4158255
:101F90001200E9CFDDFFEACFDDFF00EE1BF0316A72
:101FA0001CD8F00E3262FCD732C0EEFF150E316E37
:101FB00014D832C0EEFF312EFBD700EE1FF0080E12
:101FC000316E010EEB38EF10EE6EEE6E312EF9D75A
:101FD000DCCFEAFFDCCFE9FF12009EAAFED7ABA45C
:101FE00006D0AE509EBAFBD7AB98AB88F6D7AECF33
:0A1FF00032F032C0ADFF120027D618
:020000040030CA
:0100000000FF
:01000100A856
:010002001AE3
:0100030000FC
:0100050000FA
:010006008178
:0100080003F4
:01000900C036
:01000A0003F2
:01000B00E014
:01000C0003F0
:01000D0040B2
:00000001FF
